{
  "contractName": "ConsumerRole",
  "abi": [
    {
      "inputs": [],
      "payable": false,
      "stateMutability": "nonpayable",
      "type": "constructor"
    },
    {
      "anonymous": false,
      "inputs": [
        {
          "indexed": true,
          "internalType": "address",
          "name": "account",
          "type": "address"
        }
      ],
      "name": "ConsumerAdded",
      "type": "event"
    },
    {
      "anonymous": false,
      "inputs": [
        {
          "indexed": true,
          "internalType": "address",
          "name": "account",
          "type": "address"
        }
      ],
      "name": "ConsumerRemoved",
      "type": "event"
    },
    {
      "constant": true,
      "inputs": [
        {
          "internalType": "address",
          "name": "account",
          "type": "address"
        }
      ],
      "name": "isConsumer",
      "outputs": [
        {
          "internalType": "bool",
          "name": "",
          "type": "bool"
        }
      ],
      "payable": false,
      "stateMutability": "view",
      "type": "function"
    },
    {
      "constant": false,
      "inputs": [
        {
          "internalType": "address",
          "name": "account",
          "type": "address"
        }
      ],
      "name": "addConsumer",
      "outputs": [],
      "payable": false,
      "stateMutability": "nonpayable",
      "type": "function"
    },
    {
      "constant": false,
      "inputs": [],
      "name": "renounceConsumer",
      "outputs": [],
      "payable": false,
      "stateMutability": "nonpayable",
      "type": "function"
    }
  ],
  "bytecode": "0x608060405234801561001057600080fd5b506100203361002560201b60201c565b6101d9565b6100348161003760201b60201c565b50565b61004f81600061009560201b61026a1790919060201c565b8073ffffffffffffffffffffffffffffffffffffffff167f28b26e7a3d20aedbc5f8f2ebf7da671c0491723a2b78f47a097b0e46dee0714260405160405180910390a250565b600073ffffffffffffffffffffffffffffffffffffffff168173ffffffffffffffffffffffffffffffffffffffff1614156100cf57600080fd5b6100df828261014760201b60201c565b156100e957600080fd5b60018260000160008373ffffffffffffffffffffffffffffffffffffffff1673ffffffffffffffffffffffffffffffffffffffff16815260200190815260200160002060006101000a81548160ff0219169083151502179055505050565b60008073ffffffffffffffffffffffffffffffffffffffff168273ffffffffffffffffffffffffffffffffffffffff16141561018257600080fd5b8260000160008373ffffffffffffffffffffffffffffffffffffffff1673ffffffffffffffffffffffffffffffffffffffff16815260200190815260200160002060009054906101000a900460ff16905092915050565b6103f6806101e86000396000f3fe608060405234801561001057600080fd5b50600436106100415760003560e01c8063112940f91461004657806361e6982d1461008a578063834ff73914610094575b600080fd5b6100886004803603602081101561005c57600080fd5b81019080803573ffffffffffffffffffffffffffffffffffffffff1690602001909291905050506100f0565b005b6100926100fc565b005b6100d6600480360360208110156100aa57600080fd5b81019080803573ffffffffffffffffffffffffffffffffffffffff169060200190929190505050610107565b604051808215151515815260200191505060405180910390f35b6100f981610124565b50565b6101053361017e565b565b600061011d8260006101d890919063ffffffff16565b9050919050565b61013881600061026a90919063ffffffff16565b8073ffffffffffffffffffffffffffffffffffffffff167f28b26e7a3d20aedbc5f8f2ebf7da671c0491723a2b78f47a097b0e46dee0714260405160405180910390a250565b61019281600061031690919063ffffffff16565b8073ffffffffffffffffffffffffffffffffffffffff167fe3f5ed5f263f1f01764a96edfc7d025f511ec5f7d180e8816908b78bcf74f09860405160405180910390a250565b60008073ffffffffffffffffffffffffffffffffffffffff168273ffffffffffffffffffffffffffffffffffffffff16141561021357600080fd5b8260000160008373ffffffffffffffffffffffffffffffffffffffff1673ffffffffffffffffffffffffffffffffffffffff16815260200190815260200160002060009054906101000a900460ff16905092915050565b600073ffffffffffffffffffffffffffffffffffffffff168173ffffffffffffffffffffffffffffffffffffffff1614156102a457600080fd5b6102ae82826101d8565b156102b857600080fd5b60018260000160008373ffffffffffffffffffffffffffffffffffffffff1673ffffffffffffffffffffffffffffffffffffffff16815260200190815260200160002060006101000a81548160ff0219169083151502179055505050565b600073ffffffffffffffffffffffffffffffffffffffff168173ffffffffffffffffffffffffffffffffffffffff16141561035057600080fd5b61035a82826101d8565b61036357600080fd5b60008260000160008373ffffffffffffffffffffffffffffffffffffffff1673ffffffffffffffffffffffffffffffffffffffff16815260200190815260200160002060006101000a81548160ff021916908315150217905550505056fea265627a7a72315820de60eee2f04b230814920602d700bb0994847e0b26a7191fae1b74e37a50cf5064736f6c63430005100032",
  "source": "pragma solidity ^0.5.16;\r\n\r\n// Import the library 'Roles'\r\nimport \"./Roles.sol\";\r\n\r\n// Define a contract 'ConsumerRole' to manage this role - add, remove, check\r\n\r\ncontract ConsumerRole {\r\n    using Roles for Roles.Role;\r\n  // Define 2 events, one for Adding, and other for Removing\r\n\r\n    event ConsumerAdded(address indexed account);\r\n    event ConsumerRemoved(address indexed account);\r\n  // Define a struct 'consumers' by inheriting from 'Roles' library, struct Role\r\n    Roles.Role private consumers;\r\n  // In the constructor make the address that deploys this contract the 1st consumer\r\n\r\n    constructor() public {\r\n        addConsumer(msg.sender);\r\n    }\r\n\r\n  // Define a modifier that checks to see if msg.sender has the appropriate role\r\n    modifier onlyConsumer() {\r\n        require(isConsumer(msg.sender));\r\n        _;\r\n    }\r\n\r\n  // Define a function 'isConsumer' to check this role\r\n    function isConsumer(address account) public view returns (bool) {\r\n        return consumers.has(account);\r\n    }\r\n\r\n  // Define a function 'addConsumer' that adds this role\r\n    function addConsumer(address account) public {\r\n        _addConsumer(account);\r\n    }\r\n\r\n  // Define a function 'renounceConsumer' to renounce this role\r\n    function renounceConsumer() public {\r\n        _removeConsumer(msg.sender);\r\n    }\r\n\r\n  // Define an internal function '_addConsumer' to add this role, called by 'addConsumer'\r\n    function _addConsumer(address account) internal {\r\n        consumers.add(account);\r\n        emit ConsumerAdded(account);\r\n    }\r\n\r\n  // Define an internal function '_removeConsumer' to remove this role, called by 'removeConsumer'\r\n    function _removeConsumer(address account) internal {\r\n        consumers.remove(account);\r\n        emit ConsumerRemoved(account);\r\n    }\r\n}\r\n",
  "sourcePath": "C:\\Users\\bls24\\OneDrive\\Documents\\GitHub\\CoffeeSupplyChain\\project-6\\contracts\\coffeeaccesscontrol\\ConsumerRole.sol",
  "compiler": {
    "name": "solc",
    "version": "0.5.16+commit.9c3226ce.Emscripten.clang"
  },
  "schemaVersion": "3.2.5",
  "updatedAt": "2020-11-05T14:26:26.032Z",
  "networkType": "ethereum",
  "devdoc": {
    "methods": {}
  },
  "userdoc": {
    "methods": {}
  }
}