{
  "contractName": "DistributorRole",
  "abi": [
    {
      "inputs": [],
      "payable": false,
      "stateMutability": "nonpayable",
      "type": "constructor"
    },
    {
      "anonymous": false,
      "inputs": [
        {
          "indexed": true,
          "internalType": "address",
          "name": "account",
          "type": "address"
        }
      ],
      "name": "DistributorAdded",
      "type": "event"
    },
    {
      "anonymous": false,
      "inputs": [
        {
          "indexed": true,
          "internalType": "address",
          "name": "account",
          "type": "address"
        }
      ],
      "name": "DistributorRemoved",
      "type": "event"
    },
    {
      "constant": true,
      "inputs": [
        {
          "internalType": "address",
          "name": "account",
          "type": "address"
        }
      ],
      "name": "isDistributor",
      "outputs": [
        {
          "internalType": "bool",
          "name": "",
          "type": "bool"
        }
      ],
      "payable": false,
      "stateMutability": "view",
      "type": "function"
    },
    {
      "constant": false,
      "inputs": [
        {
          "internalType": "address",
          "name": "account",
          "type": "address"
        }
      ],
      "name": "addDistributor",
      "outputs": [],
      "payable": false,
      "stateMutability": "nonpayable",
      "type": "function"
    },
    {
      "constant": false,
      "inputs": [],
      "name": "renounceDistributor",
      "outputs": [],
      "payable": false,
      "stateMutability": "nonpayable",
      "type": "function"
    }
  ],
  "bytecode": "0x608060405234801561001057600080fd5b506100203361002560201b60201c565b6101d9565b6100348161003760201b60201c565b50565b61004f81600061009560201b6103151790919060201c565b8073ffffffffffffffffffffffffffffffffffffffff167fddbf200aa634dc3fb81cfd68583dd1040d1c751d335e1d86b631bde3e977fea860405160405180910390a250565b600073ffffffffffffffffffffffffffffffffffffffff168173ffffffffffffffffffffffffffffffffffffffff1614156100cf57600080fd5b6100df828261014760201b60201c565b156100e957600080fd5b60018260000160008373ffffffffffffffffffffffffffffffffffffffff1673ffffffffffffffffffffffffffffffffffffffff16815260200190815260200160002060006101000a81548160ff0219169083151502179055505050565b60008073ffffffffffffffffffffffffffffffffffffffff168273ffffffffffffffffffffffffffffffffffffffff16141561018257600080fd5b8260000160008373ffffffffffffffffffffffffffffffffffffffff1673ffffffffffffffffffffffffffffffffffffffff16815260200190815260200160002060009054906101000a900460ff16905092915050565b6103f6806101e86000396000f3fe608060405234801561001057600080fd5b50600436106100415760003560e01c8063644241db146100465780637250e224146100505780638f0c86fa14610094575b600080fd5b61004e6100f0565b005b6100926004803603602081101561006657600080fd5b81019080803573ffffffffffffffffffffffffffffffffffffffff1690602001909291905050506100fb565b005b6100d6600480360360208110156100aa57600080fd5b81019080803573ffffffffffffffffffffffffffffffffffffffff169060200190929190505050610107565b604051808215151515815260200191505060405180910390f35b6100f933610124565b565b6101048161017e565b50565b600061011d8260006101d890919063ffffffff16565b9050919050565b61013881600061026a90919063ffffffff16565b8073ffffffffffffffffffffffffffffffffffffffff167f126174f6cf49c81cdb4a9214c6b8f037bef55b4ec31e4fc776cea2a1c8a88d5960405160405180910390a250565b61019281600061031590919063ffffffff16565b8073ffffffffffffffffffffffffffffffffffffffff167fddbf200aa634dc3fb81cfd68583dd1040d1c751d335e1d86b631bde3e977fea860405160405180910390a250565b60008073ffffffffffffffffffffffffffffffffffffffff168273ffffffffffffffffffffffffffffffffffffffff16141561021357600080fd5b8260000160008373ffffffffffffffffffffffffffffffffffffffff1673ffffffffffffffffffffffffffffffffffffffff16815260200190815260200160002060009054906101000a900460ff16905092915050565b600073ffffffffffffffffffffffffffffffffffffffff168173ffffffffffffffffffffffffffffffffffffffff1614156102a457600080fd5b6102ae82826101d8565b6102b757600080fd5b60008260000160008373ffffffffffffffffffffffffffffffffffffffff1673ffffffffffffffffffffffffffffffffffffffff16815260200190815260200160002060006101000a81548160ff0219169083151502179055505050565b600073ffffffffffffffffffffffffffffffffffffffff168173ffffffffffffffffffffffffffffffffffffffff16141561034f57600080fd5b61035982826101d8565b1561036357600080fd5b60018260000160008373ffffffffffffffffffffffffffffffffffffffff1673ffffffffffffffffffffffffffffffffffffffff16815260200190815260200160002060006101000a81548160ff021916908315150217905550505056fea265627a7a723158202bbb078e85c72d2f2b112dda8dd60198fd72087872a6f3dcd03fdf757bad433564736f6c63430005100032",
  "source": "pragma solidity ^0.5.16;\r\n\r\n// Import the library 'Roles'\r\nimport \"./Roles.sol\";\r\n\r\n// Define a contract 'DistributorRole' to manage this role - add, remove, check\r\n\r\ncontract DistributorRole {\r\n\r\n    using Roles for Roles.Role;\r\n  // Define 2 events, one for Adding, and other for Removing\r\n    event DistributorAdded(address indexed account);\r\n    event DistributorRemoved(address indexed account);\r\n\r\n  // Define a struct 'distributors' by inheriting from 'Roles' library, struct Role\r\n    Roles.Role private distributors;\r\n  // In the constructor make the address that deploys this contract the 1st distributor\r\n\r\n    constructor() public {\r\n        addDistributor(msg.sender);\r\n    }\r\n\r\n  // Define a modifier that checks to see if msg.sender has the appropriate role\r\n    modifier onlyDistributor() {\r\n        require(isDistributor(msg.sender));\r\n        _;\r\n    }\r\n\r\n  // Define a function 'isDistributor' to check this role\r\n    function isDistributor(address account) public view returns (bool) {\r\n        return distributors.has(account);\r\n    }\r\n\r\n  // Define a function 'addDistributor' that adds this role\r\n    function addDistributor(address account) public {\r\n        _addDistributor(account);\r\n    }\r\n\r\n  // Define a function 'renounceDistributor' to renounce this role\r\n    function renounceDistributor() public {\r\n        _removeDistributor(msg.sender);\r\n    }\r\n\r\n  // Define an internal function '_addDistributor' to add this role, called by 'addDistributor'\r\n    function _addDistributor(address account) internal {\r\n        distributors.add(account);\r\n        emit DistributorAdded(account);\r\n    }\r\n\r\n  // Define an internal function '_removeDistributor' to remove this role, called by 'removeDistributor'\r\n    function _removeDistributor(address account) internal {\r\n        distributors.remove(account);\r\n        emit DistributorRemoved(account);\r\n    }\r\n}\r\n",
  "sourcePath": "C:\\Users\\bls24\\OneDrive\\Documents\\GitHub\\CoffeeSupplyChain\\project-6\\contracts\\coffeeaccesscontrol\\DistributorRole.sol",
  "compiler": {
    "name": "solc",
    "version": "0.5.16+commit.9c3226ce.Emscripten.clang"
  },
  "schemaVersion": "3.2.5",
  "updatedAt": "2020-11-05T01:28:29.593Z",
  "networkType": "ethereum",
  "devdoc": {
    "methods": {}
  },
  "userdoc": {
    "methods": {}
  }
}