{
  "contractName": "RetailerRole",
  "abi": [
    {
      "inputs": [],
      "payable": false,
      "stateMutability": "nonpayable",
      "type": "constructor"
    },
    {
      "anonymous": false,
      "inputs": [
        {
          "indexed": true,
          "internalType": "address",
          "name": "account",
          "type": "address"
        }
      ],
      "name": "RetailerAdded",
      "type": "event"
    },
    {
      "anonymous": false,
      "inputs": [
        {
          "indexed": true,
          "internalType": "address",
          "name": "account",
          "type": "address"
        }
      ],
      "name": "RetailerRemoved",
      "type": "event"
    },
    {
      "constant": true,
      "inputs": [
        {
          "internalType": "address",
          "name": "account",
          "type": "address"
        }
      ],
      "name": "isRetailer",
      "outputs": [
        {
          "internalType": "bool",
          "name": "",
          "type": "bool"
        }
      ],
      "payable": false,
      "stateMutability": "view",
      "type": "function"
    },
    {
      "constant": false,
      "inputs": [
        {
          "internalType": "address",
          "name": "account",
          "type": "address"
        }
      ],
      "name": "addRetailer",
      "outputs": [],
      "payable": false,
      "stateMutability": "nonpayable",
      "type": "function"
    },
    {
      "constant": false,
      "inputs": [],
      "name": "renounceRetailer",
      "outputs": [],
      "payable": false,
      "stateMutability": "nonpayable",
      "type": "function"
    }
  ],
  "bytecode": "0x608060405234801561001057600080fd5b506100203361002560201b60201c565b610212565b6100343361004f60201b60201c565b61003d57600080fd5b61004c8161007060201b60201c565b50565b60006100698260006100ce60201b6101361790919060201c565b9050919050565b61008881600061016060201b61027c1790919060201c565b8073ffffffffffffffffffffffffffffffffffffffff167f71ae26cad02663e3d92efd6ec56031a80d74a20c0ab4183faa8bf262261c9baa60405160405180910390a250565b60008073ffffffffffffffffffffffffffffffffffffffff168273ffffffffffffffffffffffffffffffffffffffff16141561010957600080fd5b8260000160008373ffffffffffffffffffffffffffffffffffffffff1673ffffffffffffffffffffffffffffffffffffffff16815260200190815260200160002060009054906101000a900460ff16905092915050565b600073ffffffffffffffffffffffffffffffffffffffff168173ffffffffffffffffffffffffffffffffffffffff16141561019a57600080fd5b6101aa82826100ce60201b60201c565b156101b457600080fd5b60018260000160008373ffffffffffffffffffffffffffffffffffffffff1673ffffffffffffffffffffffffffffffffffffffff16815260200190815260200160002060006101000a81548160ff0219169083151502179055505050565b610408806102216000396000f3fe608060405234801561001057600080fd5b50600436106100415760003560e01c80635da09b88146100465780638ec4f505146100a2578063db0e6a2f146100e6575b600080fd5b6100886004803603602081101561005c57600080fd5b81019080803573ffffffffffffffffffffffffffffffffffffffff1690602001909291905050506100f0565b604051808215151515815260200191505060405180910390f35b6100e4600480360360208110156100b857600080fd5b81019080803573ffffffffffffffffffffffffffffffffffffffff16906020019092919050505061010d565b005b6100ee61012b565b005b600061010682600061013690919063ffffffff16565b9050919050565b610116336100f0565b61011f57600080fd5b610128816101c8565b50565b61013433610222565b565b60008073ffffffffffffffffffffffffffffffffffffffff168273ffffffffffffffffffffffffffffffffffffffff16141561017157600080fd5b8260000160008373ffffffffffffffffffffffffffffffffffffffff1673ffffffffffffffffffffffffffffffffffffffff16815260200190815260200160002060009054906101000a900460ff16905092915050565b6101dc81600061027c90919063ffffffff16565b8073ffffffffffffffffffffffffffffffffffffffff167f71ae26cad02663e3d92efd6ec56031a80d74a20c0ab4183faa8bf262261c9baa60405160405180910390a250565b61023681600061032890919063ffffffff16565b8073ffffffffffffffffffffffffffffffffffffffff167fdb7176e79cffef81cb01767dd0447a0b24bb72ca9778d4b245581086b2a7e6db60405160405180910390a250565b600073ffffffffffffffffffffffffffffffffffffffff168173ffffffffffffffffffffffffffffffffffffffff1614156102b657600080fd5b6102c08282610136565b156102ca57600080fd5b60018260000160008373ffffffffffffffffffffffffffffffffffffffff1673ffffffffffffffffffffffffffffffffffffffff16815260200190815260200160002060006101000a81548160ff0219169083151502179055505050565b600073ffffffffffffffffffffffffffffffffffffffff168173ffffffffffffffffffffffffffffffffffffffff16141561036257600080fd5b61036c8282610136565b61037557600080fd5b60008260000160008373ffffffffffffffffffffffffffffffffffffffff1673ffffffffffffffffffffffffffffffffffffffff16815260200190815260200160002060006101000a81548160ff021916908315150217905550505056fea265627a7a72315820eb92c60298a1d569780aa37fd795041562219ab985e5b3d6272c228bbe64bcdc64736f6c63430005100032",
  "source": "pragma solidity ^0.5.16;\n\n// Import the library 'Roles'\nimport \"./Roles.sol\";\n\n// Define a contract 'RetailerRole' to manage this role - add, remove, check\n\ncontract RetailerRole {\n    using Roles for Roles.Role;\n\n  // Define 2 events, one for Adding, and other for Removing\n    event RetailerAdded(address indexed account);\n    event RetailerRemoved(address indexed account);\n  // Define a struct 'retailers' by inheriting from 'Roles' library, struct Role\n    Roles.Role private retailers;\n\n  // In the constructor make the address that deploys this contract the 1st retailer\n    constructor() public {\n        addRetailer(msg.sender);\n    }\n\n  // Define a modifier that checks to see if msg.sender has the appropriate role\n    modifier onlyRetailer() {\n        require(isRetailer(msg.sender));\n        _;\n    }\n\n  // Define a function 'isRetailer' to check this role\n    function isRetailer(address account) public view returns (bool) {\n        return retailers.has(account);\n    }\n\n  // Define a function 'addRetailer' that adds this role\n    function addRetailer(address account) public onlyRetailer {\n        _addRetailer(account);\n    }\n\n  // Define a function 'renounceRetailer' to renounce this role\n    function renounceRetailer() public {\n        _removeRetailer(msg.sender);\n    }\n\n  // Define an internal function '_addRetailer' to add this role, called by 'addRetailer'\n    function _addRetailer(address account) internal {\n        retailers.add(account);\n        emit RetailerAdded(account);\n    }\n\n  // Define an internal function '_removeRetailer' to remove this role, called by 'removeRetailer'\n    function _removeRetailer(address account) internal {\n        retailers.remove(account);\n        emit RetailerRemoved(account);\n    }\n}\n",
  "sourcePath": "/Users/nstamm10/Documents/GitHub/CoffeeSupplyChain/project-6/contracts/coffeeaccesscontrol/RetailerRole.sol",
  "compiler": {
    "name": "solc",
    "version": "0.5.16+commit.9c3226ce.Emscripten.clang"
  },
  "schemaVersion": "3.2.5",
  "updatedAt": "2020-11-02T20:26:04.513Z",
  "devdoc": {
    "methods": {}
  },
  "userdoc": {
    "methods": {}
  }
}